:100000000C942A001895000018950000189500001F
:10001000189500001895000018950000189500002C
:10002000189500001895000018950000189500001C
:10003000189500001895000018950000189500000C
:1000400018950000189500001895000018950000FC
:10005000189500008FE58DBFC8E3E0E24E2E84E0E6
:100060008EBFD4E0F4E05F2EA89584B7082E877F7A
:1000700084BF88E1992781BD91BDEEEFF3E0A0E652
:10008000B0E088278D933197E9F70E943401662408
:100090008CE00E9482010E941F01789483E886B957
:1000A00080E487B9379AA19AA9980E9463000E94B8
:1000B00090000E94B9008CE291E00E94AF010C9484
:1000C0005500F894FFCF07B1007E076007B90E9482
:1000D000CD01A0E6B0E08D939C93A0E6B0E00D9139
:1000E0001C9145E050E00E94C301A0E6B0E00D93F2
:1000F0001C9307B1007E066007B90E94CD01A2E6FD
:10010000B0E08D939C93A2E6B0E00D911C9145E088
:1001100050E00E94C301A2E6B0E00D931C93089545
:100120008FE711E00E942E01EAE7F4E00E94180137
:10013000E0E6F0E0A8E0B4E00E94E8010E941001CF
:10014000E0E8F4E00E9418018FEB11E00E942E011C
:10015000E4E8F4E00E941801E2E6F0E0A8E0B4E090
:100160000E94E8010E941001E0E8F4E00E941801FA
:100170000895A2E6B0E08D919C91A4E6B0E08D9345
:100180009C93A2E6B0E00D911C910A501040A6E6A7
:10019000B0E00D931C93A4E6B0E04D915C91A0E615
:1001A000B0E00D911C910417150718F011F00C9494
:1001B000DB000C94DE00A9980C94ED00A6E6B0E0FC
:1001C0004D915C91A0E6B0E00D911C9104171507CC
:1001D00018F011F00C94ED00A99A089505D00E9432
:1001E000C30100FC0CD008950024E89457FF02C01E
:1001F00009D0689400F80BD010F80124089502D0BB
:1002000009D00895509540954F5F5F4F0895E89449
:1002100017FF0895009510950F5F1F4F689408957C
:10022000A8E0B4E08D91882311F066D0FBCF08954B
:100230000E94D601802D11F05FD0FACF089581E0A1
:1002400061D00FD080E85EC08FE7213039F08FEBAE
:10025000223021F08FE8233009F08FEC810F0C94CD
:10026000820183E099277BC08AEF90E00E94AF0172
:10027000BF9ABE9ABD9ABC9ABA9AB89AC09885E0BD
:1002800090E00E94AF01C298C798C698C59AC49AD8
:10029000C29AEF93FF93E5E1F0E00E94A301FF9182
:1002A000EF91C29859D0C29AEF93FF93E5E1F0E045
:1002B0000E94A301FF91EF91C2984ED0C29AEF9392
:1002C000FF93E5E1F0E00E94A301FF91EF91C29856
:1002D00043D0C498C29AEF93FF93E5E1F0E00E9407
:1002E000A301FF91EF91C29837D088E20BD08EE046
:1002F00009D086E007D00895C09A829505D004D031
:100300002BD00895C098F9CF859510F4C49A01C0F8
:10031000C498859510F4C59A01C0C598859510F4C8
:10032000C69A01C0C698859510F4C79A01C0C798AF
:10033000C29AEF93FF93E5E1F0E00E94A301FF91E1
:10034000EF91C29808953197F1F70895689462F893
:100350000895E89462F8089581E090E000C0EF937A
:10036000FF93EE27E82BE92B31F0EAEFF0E031972D
:10037000F1F70197D1F7FF91EF9108950191119154
:100380002191308108950F92B801469F8001479FC7
:10039000100D569F100D0F900895369A3699FECF86
:1003A000369A3699FECF84B195B10895C8953196A5
:1003B00000200895000F111F221F331F089500957C
:1003C0001095209530950F5F1F4F2F4F3F4F089589
:1003D000019110810FC00E94BE010EC00E94BE019B
:1003E00010C00191108117FF05C03FEF2FEF04C02F
:1003F000008111272227332737FF03C0E0DF8DE27A
:100400008D93CF92DF92EF92AA24BB24CC24DD24DB
:10041000EE2440E2EAE0FF2755E093E38081890F74
:1004200087FD9F7083FD907F891B81935A95A9F763
:10043000C1DFAA1CBB1CCC1CDD1CEE1C4A9551F76D
:10044000E894EFE0FF2782910BD0EB30E0F71EF04D
:1004500068948A2D09D04D93EF90DF90CF90089546
:10046000982F829501D0892F8F70805D26F0803380
:1004700009F4089568948D9308954C44523A00000D
:0E048000206D5600536574706F696E743A00FB
:00000001FF
